:100000000C9462000C948A000C948A000C948A0070
:100010000C948A000C948A000C948A000C948A0038
:100020000C948A000C948A000C948A000C94B106FB
:100030000C948A000C948A000C948A000C948A0018
:100040000C9467060C948A000C9435060C940F06E9
:100050000C948A000C948A000C948A000C948A00F8
:100060000C948A000C948A000000000024002700F1
:100070002A0000000000250028002B0000000008D6
:10008000000201000003040700000000000000005F
:1000900000000000230026002900040404040404D6
:1000A0000404020202020202030303030303010227
:1000B00004081020408001020408102001020408F6
:1000C00010206D0711241FBECFEFD8E0DEBFCDBFDB
:1000D00011E0A0E0B1E0EEE6FBE102C005900D9278
:1000E000AC3EB107D9F722E0ACEEB1E001C01D9201
:1000F000A63EB207E1F710E0C2E6D0E004C02197C7
:10010000FE010E94AF0DC136D107C9F70E94150844
:100110000C94B50D0C9400008F929F92AF92BF92F9
:10012000FF920F931F93CF93DF93F090E3022BE0A6
:100130002F1508F44CC02091E50208E512E0021BDF
:10014000110927FD1395000F111F000F111F20919A
:10015000E402C8E8D0E0C21BD10927FDD395CC0F3B
:10016000DD1FCC0FDD1F4E010D2E000CAA08BB08B1
:100170009801012E000C440B550B281939094A0926
:100180005B09DC010E94990B24EB30E040E050E079
:100190000E946F0B820E931EA41EB51E8C169D0628
:1001A0002CF0E801801691060CF4E4012297CC0FA4
:1001B000DD1F2FB7F8948F2D90E0FC01EE0FFF1F8D
:1001C000E80FF91FED56FD4FD283C1832FBFDF919A
:1001D000CF911F910F91FF90BF90AF909F908F9004
:1001E0000895CF92DF92EF92FF92CF93DF93B09179
:1001F000BF02A0E08111AB2F8091C00290E0880F78
:10020000991FAC0140575F4FC090C502D090C60205
:10021000E090C702F090C80230E020E0FA01C591FA
:10022000D491E881B90190E080E0EB23EA130AC0A1
:100230002F5F3F4F6C157D058E059F0578F36FEF9F
:100240007FEFCB01DF91CF91FF90EF90DF90CF90C8
:100250000895FC01538D448D252F30E0842F90E0CC
:10026000821B930B541710F0CF96089501970895B1
:10027000FC01918D828D981761F0A28DAE0FBF2F7A
:10028000B11D5D968C91928D9F5F9F73928F90E0D0
:1002900008958FEF9FEF0895FC01918D828D98173F
:1002A00031F0828DE80FF11D858D90E008958FEF7C
:1002B0009FEF0895FC01918D228D892F90E0805C45
:1002C0009F4F821B91098F7399270895FC01A48D7C
:1002D000A80FB92FB11DA35ABF4F2C91848D90E068
:1002E00001968F739927848FA689B7892C93A0894B
:1002F000B1898C91837080648C93938D848D9813D5
:1003000006C00288F389E02D80818F7D8083089567
:10031000EF92FF920F931F93CF93DF93EC0181E055
:10032000888F9B8D8C8D98131AC0E889F9898081FC
:1003300085FF15C09FB7F894EE89FF896083E8892F
:10034000F98980818370806480839FBF81E090E021
:10035000DF91CF911F910F91FF90EF900895F62EAE
:100360000B8D10E00F5F1F4F0F731127E02E8C8D48
:100370008E110CC00FB607FCFACFE889F98980818D
:1003800085FFF5CFCE010E946601F1CFEB8DEC0F1A
:10039000FD2FF11DE35AFF4FF0829FB7F8940B8FAA
:1003A000EA89FB8980818062CFCFCF93DF93EC0114
:1003B000888D8823B9F0AA89BB89E889F9898C914D
:1003C00085FD03C0808186FD0DC00FB607FCF7CF09
:1003D0008C9185FFF2CF808185FFEDCFCE010E9409
:1003E0006601E9CFDF91CF91089586EF91E00E94F9
:1003F0005A0121E0892B09F420E0822F089580E042
:1004000090E0892B29F00E94F50181110C940000E5
:100410000895AF92BF92CF92DF92EF92FF920F9327
:100420001F93CF93DF936C017B018B01040F151F8A
:10043000EB015E01AE18BF08C017D10759F06991F2
:10044000D601ED91FC910190F081E02DC601099556
:10045000892B79F7C501DF91CF911F910F91FF9003
:10046000EF90DF90CF90BF90AF90089590E0FC01A7
:10047000E458FF4F2491FC01E255FF4F3491FC01F9
:10048000E656FF4FE491EE23C9F0222339F02330E2
:1004900001F1A8F4213019F1223029F1F0E0EE0F3A
:1004A000FF1FEE58FF4FA591B4918FB7F894EC91D0
:1004B000611126C030953E233C938FBF08952730AD
:1004C000A9F02830C9F0243049F7809180008F7D51
:1004D00003C0809180008F7780938000DFCF84B548
:1004E0008F7784BDDBCF84B58F7DFBCF8091B0004B
:1004F0008F778093B000D2CF8091B0008F7DF9CFFD
:100500003E2BDACFCF93DF9390E0FC01E255FF4F13
:10051000249186569F4FFC0184918823C9F090E076
:10052000880F991FFC01E859FF4FA591B491FC0178
:10053000EE58FF4FC591D49161110DC09FB7F8944B
:100540008C91209582238C938881282328839FBFB8
:10055000DF91CF910895623051F49FB7F8943C91A8
:10056000822F809583238C93E8812E2BEFCF8FB73A
:10057000F894EC912E2B2C938FBFEACF8E50806491
:1005800080937C0080917A00806480937A008091CF
:100590007A0086FDFCCF80917800909179000895D3
:1005A0003FB7F8948091EE019091EF01A091F00196
:1005B000B091F10126B5A89B05C02F3F19F0019617
:1005C000A11DB11D3FBFBA2FA92F982F8827BC01AD
:1005D000CD01620F711D811D911D42E0660F771FD5
:1005E000881F991F4A95D1F708958F929F92AF92D5
:1005F000BF92CF92DF92EF92FF924B015C010E947B
:10060000D0026B017C010E94D0026C197D098E0919
:100610009F09683E734081059105A8F321E0821A85
:100620009108A108B10888EEC80E83E0D81EE11C2D
:10063000F11C81149104A104B10429F7FF90EF90FB
:10064000DF90CF90BF90AF909F908F900895CF9202
:10065000DF92EF92FF920F931F93CF93DF93CDB76B
:10066000DEB7C054D1400FB6F894DEBF0FBECDBF89
:100670002FB7F8948091F2019091F301A091F401C9
:10068000B091F5012FBF4091C1025091C20260911B
:10069000C3027091C4028C019D01041B150B260B33
:1006A000370BB901A801403D57406105710590F431
:1006B0008091C902C05CDE4F0FB6F894DEBF0FBE5A
:1006C000CDBFDF91CF911F910F91FF90EF90DF9001
:1006D000CF9008958093C1029093C202A093C30269
:1006E000B093C4021092BC021092BB021092BA02E4
:1006F0001092B9021092B80262E08091BD020E948D
:10070000820261E070E080E090E00E94F50261E02A
:100710008091BD020E94820260E08091BD020E9431
:1007200036028091BE028551823020F58BE291E144
:100730000197F1F762E08091BD020E9482028091F0
:10074000CA0290E08230910538F0880F991F880F17
:10075000991F05970197F1F7F89480E00E94F10046
:100760006F3F7F4F8F4F9F4F61F41092C902789473
:1007700080E0A0CF64E170E080E090E00E94F502AC
:10078000D9CF81E00E94F1006F3F7F4F8F4F9F4F85
:1007900061F38E010F5F1F4F6E018FEBC81A8EEF52
:1007A000D80A780180E00E94F100F701608371832C
:1007B0008283938381E00E94F100F7016483758353
:1007C00086839783F8E0EF0EF11CEC14FD0451F7DB
:1007D000789430E020E0F801C080D180E280F3809E
:1007E0004481558166817781FFEFCF16DF06EF06E2
:1007F000FF0631F04F3F8FEF58076807780719F46D
:100800001092C902B5CFF90183E0F595E7958A9575
:10081000E1F7E854FD4F8081880FC416D506E6063F
:10082000F70610F180832F5F3F4F085F1F4F28327C
:10083000310589F64091BC022091B8028091B9023D
:10084000280F3327331F8091BA02280F311D809162
:10085000BB02820F932F911D99274817190681F625
:1008600081E08093C90226CF8160DCCF089590E0BB
:1008700080E00895FC0101900020E9F73197AF0175
:10088000481B590BBC018BEC92E00C9409028F922F
:100890009F92AF92BF920F931F93CF93DF93CDB7E9
:1008A000DEB7A1970FB6F894DEBF0FBECDBF19A279
:1008B000423008F44AE08E010F5D1F4F842E912CC8
:1008C000B12CA12CA50194010E94A10BE62FB90126
:1008D000CA01EA30F4F4E05DD801EE938D01232BD8
:1008E000242B252B79F790E080E0109719F0CD01AB
:1008F0000E943A04A1960FB6F894DEBF0FBECDBF9A
:10090000DF91CF911F910F91BF90AF909F908F90EB
:100910000895E95CE1CF0C943A04CF93DF93EC01A6
:1009200060E08E810E94360261E08E810E94360274
:1009300060E08E810E9436028BE891E00197F1F72A
:10094000DF91CF910895CF92DF92EF92FF920F93B4
:100950001F93CF93DF936C017C0187E0E80EF11CBD
:10096000D0E0C0E0062F10E0B8010C2E02C0759553
:1009700067950A94E2F76170F70181917F010E9407
:1009800036022196C430D10579F7C601DF91CF91A7
:100990001F910F91FF90EF90DF90CF900C948D04FA
:1009A000CF92DF92EF92FF920F931F93CF93DF933B
:1009B000EC01F62E642F8C810E9436028D818F3FD0
:1009C00019F060E00E9436020F2D10E08F8584FF41
:1009D00025C06E0187E0C80ED11CF12CE12CB801B6
:1009E0000E2C02C0759567950A94E2F76170F601C6
:1009F00081916F010E943602FFEFEF1AFF0A88E033
:100A0000E816F10461F7CE01DF91CF911F910F91AC
:100A1000FF90EF90DF90CF900C948D04B80184E0AC
:100A2000759567958A95E1F7CE010E94A3046F2D15
:100A3000CE01DF91CF911F910F91FF90EF90DF904A
:100A4000CF900C94A30440E0682F8BEC92E00C94C0
:100A5000D00481E00E9423058BE39FE10197F1F729
:100A60000895CF93DF93613029F09091DA02986076
:100A70009093DA026093DE021092DF0290E490938A
:100A8000E0028093E102805C8093E20261E0809169
:100A9000CF020E9482028091D0028F3F19F061E064
:100AA0000E94820261E08091D1020E948202CBEC1E
:100AB000D2E09E012B5C32408091DA0284FD0BC0B3
:100AC00084E090E021962817390744F461E08E8194
:100AD0000E948202EECF88E090E0F4CF8BE39DE0AD
:100AE0000197F1F760E08091CF020E94360260E04A
:100AF0008091D1020E9436028091D0028F3F19F07E
:100B000060E00E9436028091DA0284FD34C063E026
:100B10008BEC92E00E94A304CBE4D6E4CE010197D3
:100B2000F1F763E08BEC92E00E94A3042197F1F7C8
:100B300063E08BEC92E00E94A30483E592E00197CE
:100B4000F1F762E08BEC92E00E94A3048091DA025C
:100B500080620E94230584E08093DB028CE00E9487
:100B600023050E94290582E08093DC0286E0DF9164
:100B7000CF910C94230580620E9423058BE496E4B8
:100B80000197F1F78091DA0280620E94230583E5E4
:100B900092E00197F1F78091DA0280620E942305CA
:100BA000D5CF9091DE02691710F06FEF690FE62F35
:100BB000F0E0E553FD4F9489890F80680C9423057C
:100BC00041E00E94D00481E090E00895CF92DF924E
:100BD000EF92FF926C01990FEE08FF08F7FE16C026
:100BE00041E06DE28BEC92E00E94D004662777270B
:100BF000CB016C197D098E099F094AE00E944704C8
:100C00000196FF90EF90DF90CF9008954AE0C701E2
:100C1000B601FF90EF90DF90CF900C9447041F92A5
:100C20000F920FB60F9211242F933F934F935F9320
:100C30006F937F938F939F93AF93BF93EF93FF93A4
:100C400086EF91E00E946601FF91EF91BF91AF9115
:100C50009F918F917F916F915F914F913F912F91D4
:100C60000F900FBE0F901F9018951F920F920FB606
:100C70000F9211242F938F939F93EF93FF93E09103
:100C80000602F09107028081E0910C02F0910D02C2
:100C900082FD1BC0908180910F028F5F8F73209126
:100CA0001002821741F0E0910F02F0E0EA50FE4F8F
:100CB000958F80930F02FF91EF919F918F912F91CC
:100CC0000F900FBE0F901F9018958081F4CF1F9248
:100CD0000F920FB60F9211242F933F938F939F93F0
:100CE000AF93BF938091F2019091F301A091F40131
:100CF000B091F5013091ED0123E0230F2D3758F528
:100D00000196A11DB11D2093ED018093F2019093F6
:100D1000F301A093F401B093F5018091EE0190915D
:100D2000EF01A091F001B091F1010196A11DB11D5B
:100D30008093EE019093EF01A093F001B093F10145
:100D4000BF91AF919F918F913F912F910F900FBEC7
:100D50000F901F90189526E8230F0296A11DB11D34
:100D6000D2CF1F920F920FB60F9211242F933F9361
:100D70004F935F936F937F938F939F93AF93BF93A3
:100D8000CF93DF93EF93FF938091EC01C091B70273
:100D9000D0E087FF24C010928500109284008091DB
:100DA000EC018F5F8093EC018091EC01082E000C28
:100DB000990B8C179D0724F48091EC018C30C4F1C1
:100DC0008091840090918500049680349C4908F4B9
:100DD0007AC08091840090918500049676C08091BD
:100DE000EC01082E000C990B8C179D07C4F6E091BE
:100DF000EC018E2FEE0F990BFC01EE0FFF1FE80F99
:100E0000F91FED56FD4F808186FFC9CFE091EC01BF
:100E10008E2FEE0F990BFC01EE0FFF1FE80FF91F4D
:100E2000ED56FD4F808160E08F730E943602B7CF90
:100E30002091840030918500E091EC018E2FEE0F1F
:100E4000990BFC01EE0FFF1FE80FF91FED56FD4F48
:100E500081819281820F931F9093890080938800F3
:100E6000E091EC018E2FEE0F990BFC01EE0FFF1FAE
:100E7000E80FF91FED56FD4F808186FF11C0E0910C
:100E8000EC018E2FEE0F990BFC01EE0FFF1FE80F08
:100E9000F91FED56FD4F808161E08F730E9436028D
:100EA000FF91EF91DF91CF91BF91AF919F918F9182
:100EB0007F916F915F914F913F912F910F900FBE56
:100EC0000F901F90189580E49CE99093890080937F
:100ED00088008FEF8093EC01E3CFCF931092F9015C
:100EE0001092F80188EE93E0A0E0B0E08093FA0160
:100EF0009093FB01A093FC01B093FD0184E091E08D
:100F00009093F7018093F60185EC90E090930302B3
:100F10008093020284EC90E0909305028093040297
:100F200080EC90E0909307028093060281EC90E0C1
:100F3000909309028093080282EC90E090930B0258
:100F400080930A0286EC90E090930D0280930C024D
:100F500010920F02109210021092110210921202BF
:100F60008091B7028C3008F05CC091E0980F9093AC
:100F7000B7028093E30290E0FC01EE0FFF1FE80F41
:100F8000F91FED56FD4F88EB9BE092838183109211
:100F9000CE021092CD0286E191E09093CC02809334
:100FA000CB028DE08093CF028FEF8093D0028CE054
:100FB0008093D102CBE0C093D2028AE08093D30227
:100FC00089E08093D40288E08093D5021092D60203
:100FD0001092D7021092D8021092D9021092DA021F
:100FE00061E080E10E94310583E08093BD02C093FF
:100FF000BE02E1EBF0E0E491E093BF02EDE9F0E046
:10100000E491E093C00280E89EE3A0E0B0E080932A
:10101000C5029093C602A093C702B093C802CF91B5
:1010200008958FEF8093E302B2CF789484B5826005
:1010300084BD84B5816084BD85B5826085BD85B57C
:10104000816085BD80916E00816080936E001092FA
:101050008100809181008260809381008091810075
:101060008160809381008091800081608093800006
:101070008091B10084608093B1008091B000816064
:101080008093B00080917A00846080937A00809190
:101090007A00826080937A0080917A0081608093E8
:1010A0007A0080917A00806880937A001092C10063
:1010B00064E084E10E94310560E081E10E948202E7
:1010C00060E082E10E94820260E083E10E9482028D
:1010D00061E08EE00E94820261E08FE00E94820265
:1010E00061E080E10E94820261E087E00E9482026A
:1010F00061E086E00E94820261E085E00E94820257
:1011000061E085E00E94360261E08EE00E943602D6
:101110008091E3028C3008F051C061E084E00E94CD
:1011200082028091E302282F30E0F901EE0FFF1FC9
:10113000E20FF31FED56FD4F9081907C94609083F9
:101140001092E4021092E5022CE0622F0E949C0DA6
:10115000829FB001112430E020E0AB01420F531F09
:10116000FA01EE0FFF1FE40FF51FED56FD4F9081C2
:1011700096FD16C02F5F3F4F2C30310571F781115E
:101180000FC01092800082E0809381001092850051
:1011900010928400B19A80916F00826080936F00FA
:1011A000E091E3028E2F90E0FC01EE0FFF1FE80FAD
:1011B000F91FED56FD4F8081806480830E942905D0
:1011C00060E080E00E94D1058EE191E00E948B04F6
:1011D00061E080E00E94D10583E391E00E948B04EE
:1011E00062E080E00E94D10588E491E00E948B04D7
:1011F00063E080E00E94D1058EE191E00E948B04C3
:101200006CED75E080E090E00E94F50262E0809174
:10121000BD020E9482022FB7F8948091F201909152
:10122000F301A091F401B091F5012FBF805D9740CB
:10123000A109B1098093C1029093C202A093C30295
:10124000B093C40287E38093CA0220E0222E20E0FC
:10125000322E82E10E94BE02EC0181E10E94BE02B8
:101260008C0183E10E94BE025C010E9427030E9460
:101270002703882341F08091BE028C3009F4A2C07C
:1012800048F48B3001F1C12CD12C80ECE82E8FE793
:10129000F82E43C085518230B0F79090BA02692D84
:1012A00070E0762F662766277F778091BB02682BD8
:1012B00090E080E00E94730C2DEC3CEC4CEC5DE384
:1012C0000E942A0D9BC06091BA0270E090E080E01D
:1012D0000E94730C6B017C019090BB0297FE0AC0C8
:1012E000AC019B0160E070E080E89FEB0E94D20BB4
:1012F0006B017C01692D6F7070E090E080E00E94CE
:10130000750C2DEC3CEC4CEC5DE30E942A0DA70122
:1013100096010E94D30B6B017C0124E630E0D501DD
:101320000E94A80D2BEF33E040E050E00E946F0BCD
:10133000490168EC70E080E090E00E94F502C40191
:101340000E9760E0039708F062C086E00E943602C4
:1013500060E087E00E94360260E080E10E94360291
:1013600060E08FE00E9436020E94290560E080E084
:101370000E94D1058EE191E00E948B0461E080E043
:101380000E94D1058CE591E00E948B0462E080E030
:101390000E94D10581E791E00E948B0463E080E028
:1013A0000E94D1058EE191E00E948B04211431044A
:1013B00009F44FCF0E94F501882309F44ACF0E9417
:1013C000000047CF9090BA02692D70E090E080E075
:1013D0000E94730C6B017C016091BB026F7070E026
:1013E00090E080E00E94750C2DEC3CEC4CEC5DE351
:1013F0000E942A0DA70196010E94D30B6B017C016C
:1014000097FE8BCFF7FAF094F7F8F09486CF80E050
:101410000E94D10586E891E00E948B0461E080E0A3
:101420000E94D1058BE991E00E948B0462E080E08C
:101430000E94D10580EB91E00E948B0463E080E084
:101440000E94D10585EC91E00E948B0460E087E06A
:101450000E94D105CE010E94E60586ED91E00E9432
:101460008B0461E087E00E94D105C8010E94E60577
:1014700086ED91E00E948B0462E087E00E94D10536
:10148000C4010E94E6058AED91E00E948B0486ED7E
:1014900091E00E948B0463E086E00E94D105A701E1
:1014A0009601C701B6010E94970D882309F445C033
:1014B0008EED91E00E943A048AEE91E00E948B0446
:1014C00020E030E04CE052E4C701B6010E943F0C3E
:1014D00087FFC7C061E086E00E94360260E087E0D7
:1014E0000E94360261E080E10E94360260E08FE0F7
:1014F0000E9436020C171D070CF0C4C0CE010A97DB
:101500008232914020F489E190E00E948C00CE016B
:101510008C5291408C32914020F48DE290E00E94F8
:101520008C00CE01885592408C32914008F0A3C0C7
:1015300086E490E00E948C0039CF46015701E89480
:10154000B7F82FEF3FEF4FE75FE7C501B4010E9407
:10155000970D81110DC02FEF3FEF4FE75FE7C501FA
:10156000B4010E943F0C18161CF482EE91E0A2CF49
:101570002FEF3FEF4FE75FE4C701B6010E94250D53
:1015800018161CF486EE91E095CF2FEF3FEF4FE752
:101590005FECC701B6010E943F0C87FDF3CF20E04E
:1015A00030E0A901C701B6010E943F0C87FF56C079
:1015B00041E06DE28BEC92E00E94D004C701B601DD
:1015C00090582AE037ED43EA5BE30E94D30B2B01EE
:1015D0003C010E94440C4B015C010E94730C9B0176
:1015E000AC01C301B2010E94D20B2B013C014AE0C5
:1015F000C501B4010E94470441E06EE28BEC92E029
:101600000E94D00420E030E040E251E4C301B20186
:101610000E942A0D2B013C010E94440C4B01B12C6D
:10162000A12C4AE0C501B4010E944704C501B401E0
:101630000E94730C9B01AC01C301B2010E94D20B4A
:1016400020E030E040E251E40E942A0D0E94440C68
:1016500090E080E04AE00E9447042ECFC701B60127
:10166000B0CF60E086E00E94360260E087E00E9432
:10167000360260E038CFC438D3400CF497CE8AE508
:1016800090E058CFC017D1071CF5C8010A978232E5
:10169000914020F483E790E00E948C00C8018C52B6
:1016A00091408C32914020F487E890E00E948C00B9
:1016B000C801885592408C32914018F48AEA90E033
:1016C00039CF043813400CF471CE84EB90E032CF64
:1016D000C017D10709F06ACE90E080E02BCF052E2D
:1016E00097FB1EF400940E94860B57FD07D00E94C2
:1016F000A10B07FC03D04EF40C94860B509540953B
:10170000309521953F4F4F4F5F4F089590958095AD
:10171000709561957F4F8F4F9F4F08950E94C30B27
:10172000A59F900DB49F900DA49F800D911D112435
:101730000895B7FF0C948E0B0E948E0B821B930BA7
:101740000895A1E21A2EAA1BBB1BFD010DC0AA1F02
:10175000BB1FEE1FFF1FA217B307E407F50720F01A
:10176000A21BB30BE40BF50B661F771F881F991F95
:101770001A9469F760957095809590959B01AC01DE
:10178000BD01CF010895A29FB001B39FC001A39FE7
:10179000700D811D1124911DB29F700D811D1124AA
:1017A000911D08955058BB27AA270E94EA0B0C945C
:1017B000EB0C0E94DD0C38F00E94E40C20F039F4B0
:1017C0009F3F19F426F40C94DA0C0EF4E095E7FB35
:1017D0000C94D40CE92F0E94FC0C58F3BA17620742
:1017E00073078407950720F079F4A6F50C941E0D75
:1017F0000EF4E0950B2EBA2FA02D0B01B90190012C
:101800000C01CA01A0011124FF27591B99F0593F6F
:1018100050F4503E68F11A16F040A22F232F342FB7
:101820004427585FF3CF469537952795A795F04005
:101830005395C9F77EF41F16BA0B620B730B840B1A
:10184000BAF09150A1F0FF0FBB1F661F771F881FD2
:10185000C2F70EC0BA0F621F731F841F48F487952A
:1018600077956795B795F7959E3F08F0B0CF93951C
:10187000880F08F09927EE0F9795879508950E9495
:10188000B00C08F481E008950E94040D88F09F5781
:1018900098F0B92F9927B751B0F0E1F0660F771F94
:1018A000881F991F1AF0BA95C9F714C0B13091F08A
:1018B0000E941E0DB1E008950C941E0D672F782F25
:1018C0008827B85F39F0B93FCCF38695779567954F
:1018D000B395D9F73EF490958095709561957F4FBB
:1018E0008F4F9F4F0895E89409C097FB3EF4909561
:1018F0008095709561957F4F8F4F9F4F9923A9F0E9
:10190000F92F96E9BB279395F69587957795679577
:10191000B795F111F8CFFAF4BB0F11F460FF1BC0BB
:101920006F5F7F4F8F4F9F4F16C0882311F096E94E
:1019300011C0772321F09EE8872F762F05C06623FC
:1019400071F096E8862F70E060E02AF09A95660FB5
:10195000771F881FDAF7880F9695879597F908956E
:10196000990F0008550FAA0BE0E8FEEF16161706B0
:10197000E807F907C0F012161306E407F50798F018
:10198000621B730B840B950B39F40A2661F0232B31
:10199000242B252B21F408950A2609F4A140A695AD
:1019A0008FEF811D811D089597F99F6780E870E092
:1019B00060E008959FEF80EC089500240A941616C5
:1019C000170618060906089500240A94121613062D
:1019D000140605060895092E0394000C11F48823BB
:1019E00052F0BB0F40F4BF2B11F460FF04C06F5FD7
:1019F0007F4F8F4F9F4F089557FD9058440F551FAD
:101A000059F05F3F71F04795880F97FB991F61F080
:101A10009F3F79F087950895121613061406551FF7
:101A2000F2CF4695F1DF08C0161617061806991F63
:101A3000F1CF86957105610508940895E894BB2758
:101A400066277727CB0197F908950E94B00C08F418
:101A50008FEF08950E943D0D0C94EB0C0E94DD0C5D
:101A600038F00E94E40C20F0952311F00C94D40C73
:101A70000C94DA0C11240C941F0D0E94FC0C70F3D2
:101A8000959FC1F3950F50E0551F629FF001729F23
:101A9000BB27F00DB11D639FAA27F00DB11DAA1F32
:101AA000649F6627B00DA11D661F829F2227B00D7F
:101AB000A11D621F739FB00DA11D621F839FA00D0A
:101AC000611D221F749F3327A00D611D231F849F5A
:101AD000600D211D822F762F6A2F11249F575040B1
:101AE0009AF0F1F088234AF0EE0FFF1FBB1F661F2C
:101AF000771F881F91505040A9F79E3F510580F0F5
:101B00000C94D40C0C941F0D5F3FE4F3983ED4F377
:101B1000869577956795B795F795E7959F5FC1F798
:101B2000FE2B880F911D9695879597F908950E9431
:101B3000B00C880B990B0895991B79E004C0991F8C
:101B4000961708F0961B881F7A95C9F78095089517
:101B50000E94C30BB7FF0895821B930B0895EE0FED
:0E1B6000FF1F0590F491E02D0994F894FFCF3B
:101B6E0000000000880109022901D5015A0138013F
:101B7E004C0100000000E0050902370436043D3D2B
:101B8E003D3D3D3D3D3D3D3D3D3D3D3D3D3D3D3D77
:101B9E003D3D0020534F4C41522043524F50204464
:101BAE005259494E4720200020202020202020532B
:101BBE00595354454D2020202020200043524F5091
:101BCE005320414C524541445920445249454421E9
:101BDE0000202052454D4F56452054484520435233
:101BEE004F50532020004C445220313A20202020C8
:101BFE0020202020202020202020004C4452203263
:101C0E003A202020202020202020202020202000CC
:101C1E004D4F4953543A20202020202020202020B0
:101C2E00202020200054454D503A202020202020F6
:101C3E0020202020202020202000252020006E6142
:0C1C4E006E00696E66006F766600430051
:00000001FF
